{
  "_format": "hh-sol-artifact-1",
  "contractName": "Peace",
  "sourceName": "contracts/Peace.sol",
  "abi": [
    {
      "inputs": [
        {
          "internalType": "address",
          "name": "storageAddress",
          "type": "address"
        },
        {
          "internalType": "address",
          "name": "tokenAddress",
          "type": "address"
        }
      ],
      "stateMutability": "payable",
      "type": "constructor"
    },
    {
      "anonymous": false,
      "inputs": [
        {
          "indexed": false,
          "internalType": "uint256",
          "name": "supporterId",
          "type": "uint256"
        },
        {
          "indexed": false,
          "internalType": "uint256",
          "name": "projectId",
          "type": "uint256"
        },
        {
          "indexed": false,
          "internalType": "uint256",
          "name": "amount",
          "type": "uint256"
        }
      ],
      "name": "onDonate",
      "type": "event"
    },
    {
      "anonymous": false,
      "inputs": [
        {
          "indexed": false,
          "internalType": "uint256",
          "name": "id",
          "type": "uint256"
        },
        {
          "indexed": false,
          "internalType": "string",
          "name": "name",
          "type": "string"
        },
        {
          "indexed": false,
          "internalType": "string",
          "name": "desc",
          "type": "string"
        }
      ],
      "name": "onFixProjectInfo",
      "type": "event"
    },
    {
      "anonymous": false,
      "inputs": [
        {
          "indexed": false,
          "internalType": "uint256",
          "name": "id",
          "type": "uint256"
        },
        {
          "indexed": false,
          "internalType": "string",
          "name": "name",
          "type": "string"
        },
        {
          "indexed": false,
          "internalType": "string",
          "name": "intro",
          "type": "string"
        }
      ],
      "name": "onFixSupporterInfo",
      "type": "event"
    },
    {
      "anonymous": false,
      "inputs": [
        {
          "indexed": false,
          "internalType": "uint256",
          "name": "id",
          "type": "uint256"
        },
        {
          "indexed": false,
          "internalType": "string",
          "name": "name",
          "type": "string"
        },
        {
          "indexed": false,
          "internalType": "string",
          "name": "desc",
          "type": "string"
        }
      ],
      "name": "onRegisterAsProject",
      "type": "event"
    },
    {
      "anonymous": false,
      "inputs": [
        {
          "indexed": false,
          "internalType": "uint256",
          "name": "id",
          "type": "uint256"
        },
        {
          "indexed": false,
          "internalType": "string",
          "name": "name",
          "type": "string"
        },
        {
          "indexed": false,
          "internalType": "string",
          "name": "intro",
          "type": "string"
        }
      ],
      "name": "onRegisterAsSupporter",
      "type": "event"
    },
    {
      "anonymous": false,
      "inputs": [
        {
          "indexed": false,
          "internalType": "uint256",
          "name": "amount",
          "type": "uint256"
        }
      ],
      "name": "onWithdraw",
      "type": "event"
    },
    {
      "inputs": [],
      "name": "addGusFee",
      "outputs": [],
      "stateMutability": "payable",
      "type": "function"
    },
    {
      "inputs": [
        {
          "internalType": "address",
          "name": "_address",
          "type": "address"
        }
      ],
      "name": "changeOwner",
      "outputs": [],
      "stateMutability": "nonpayable",
      "type": "function"
    },
    {
      "inputs": [
        {
          "internalType": "uint256",
          "name": "id",
          "type": "uint256"
        }
      ],
      "name": "donate",
      "outputs": [],
      "stateMutability": "payable",
      "type": "function"
    },
    {
      "inputs": [
        {
          "internalType": "string",
          "name": "name",
          "type": "string"
        },
        {
          "internalType": "string",
          "name": "desc",
          "type": "string"
        }
      ],
      "name": "fixProjectInfo",
      "outputs": [],
      "stateMutability": "nonpayable",
      "type": "function"
    },
    {
      "inputs": [
        {
          "internalType": "string",
          "name": "name",
          "type": "string"
        },
        {
          "internalType": "string",
          "name": "intro",
          "type": "string"
        }
      ],
      "name": "fixSupporterInfo",
      "outputs": [],
      "stateMutability": "nonpayable",
      "type": "function"
    },
    {
      "inputs": [],
      "name": "getNumOfProjects",
      "outputs": [
        {
          "internalType": "uint256",
          "name": "",
          "type": "uint256"
        }
      ],
      "stateMutability": "view",
      "type": "function"
    },
    {
      "inputs": [],
      "name": "getNumOfSupporters",
      "outputs": [
        {
          "internalType": "uint256",
          "name": "",
          "type": "uint256"
        }
      ],
      "stateMutability": "view",
      "type": "function"
    },
    {
      "inputs": [
        {
          "internalType": "uint256",
          "name": "id",
          "type": "uint256"
        }
      ],
      "name": "getProjectInfo",
      "outputs": [
        {
          "internalType": "string",
          "name": "",
          "type": "string"
        },
        {
          "internalType": "string",
          "name": "",
          "type": "string"
        }
      ],
      "stateMutability": "view",
      "type": "function"
    },
    {
      "inputs": [
        {
          "internalType": "uint256",
          "name": "id",
          "type": "uint256"
        }
      ],
      "name": "getSupporterInfo",
      "outputs": [
        {
          "internalType": "string",
          "name": "",
          "type": "string"
        },
        {
          "internalType": "string",
          "name": "",
          "type": "string"
        }
      ],
      "stateMutability": "view",
      "type": "function"
    },
    {
      "inputs": [
        {
          "internalType": "uint256",
          "name": "id",
          "type": "uint256"
        }
      ],
      "name": "getSupporterName",
      "outputs": [
        {
          "internalType": "string",
          "name": "",
          "type": "string"
        }
      ],
      "stateMutability": "view",
      "type": "function"
    },
    {
      "inputs": [],
      "name": "owner",
      "outputs": [
        {
          "internalType": "address",
          "name": "",
          "type": "address"
        }
      ],
      "stateMutability": "view",
      "type": "function"
    },
    {
      "inputs": [
        {
          "internalType": "string",
          "name": "name",
          "type": "string"
        },
        {
          "internalType": "string",
          "name": "desc",
          "type": "string"
        }
      ],
      "name": "registerAsProject",
      "outputs": [],
      "stateMutability": "nonpayable",
      "type": "function"
    },
    {
      "inputs": [
        {
          "internalType": "string",
          "name": "name",
          "type": "string"
        },
        {
          "internalType": "string",
          "name": "intro",
          "type": "string"
        }
      ],
      "name": "registerAsSupporter",
      "outputs": [],
      "stateMutability": "nonpayable",
      "type": "function"
    },
    {
      "inputs": [],
      "name": "withdraw",
      "outputs": [],
      "stateMutability": "nonpayable",
      "type": "function"
    }
  ],
  "bytecode": "0x6080604052604051620019ed380380620019ed83398181016040528101906200002991906200015d565b336000806101000a81548173ffffffffffffffffffffffffffffffffffffffff021916908373ffffffffffffffffffffffffffffffffffffffff16021790555081600160006101000a81548173ffffffffffffffffffffffffffffffffffffffff021916908373ffffffffffffffffffffffffffffffffffffffff16021790555080600260006101000a81548173ffffffffffffffffffffffffffffffffffffffff021916908373ffffffffffffffffffffffffffffffffffffffff1602179055505050620001a4565b600080fd5b600073ffffffffffffffffffffffffffffffffffffffff82169050919050565b60006200012582620000f8565b9050919050565b620001378162000118565b81146200014357600080fd5b50565b60008151905062000157816200012c565b92915050565b60008060408385031215620001775762000176620000f3565b5b6000620001878582860162000146565b92505060206200019a8582860162000146565b9150509250929050565b61183980620001b46000396000f3fe6080604052600436106100dd5760003560e01c8063676ab2d41161007f578063a6f9dae111610059578063a6f9dae114610266578063cec687441461028f578063f14faf6f146102cc578063fabf5968146102e8576100dd565b8063676ab2d4146101e55780638da5cb5b146102105780639d4911011461023b576100dd565b806354889173116100bb578063548891731461016057806355dc611c14610189578063567eccce146101b25780635af55990146101bc576100dd565b8063069d1144146100e25780633acecb461461010b5780633ccfd60b14610149575b600080fd5b3480156100ee57600080fd5b506101096004803603810190610104919061116b565b610326565b005b34801561011757600080fd5b50610132600480360381019061012d9190611222565b61049b565b6040516101409291906112df565b60405180910390f35b34801561015557600080fd5b5061015e610548565b005b34801561016c57600080fd5b506101876004803603810190610182919061116b565b610791565b005b34801561019557600080fd5b506101b060048036038101906101ab919061116b565b610906565b005b6101ba610a7b565b005b3480156101c857600080fd5b506101e360048036038101906101de919061116b565b610a96565b005b3480156101f157600080fd5b506101fa610c0b565b6040516102079190611325565b60405180910390f35b34801561021c57600080fd5b50610225610ca3565b6040516102329190611381565b60405180910390f35b34801561024757600080fd5b50610250610cc7565b60405161025d9190611325565b60405180910390f35b34801561027257600080fd5b5061028d600480360381019061028891906113c8565b610d5f565b005b34801561029b57600080fd5b506102b660048036038101906102b19190611222565b610da2565b6040516102c391906113f5565b60405180910390f35b6102e660048036038101906102e19190611222565b610e4c565b005b3480156102f457600080fd5b5061030f600480360381019061030a9190611222565b611045565b60405161031d9291906112df565b60405180910390f35b600160009054906101000a900473ffffffffffffffffffffffffffffffffffffffff1673ffffffffffffffffffffffffffffffffffffffff166399c0aa4385858585336040518663ffffffff1660e01b8152600401610389959493929190611453565b600060405180830381600087803b1580156103a357600080fd5b505af11580156103b7573d6000803e3d6000fd5b505050507f73c63a2d104ed71886d80a6d53d106a8b6dbdd9d7be9636d258f7b4144a0f055600160009054906101000a900473ffffffffffffffffffffffffffffffffffffffff1673ffffffffffffffffffffffffffffffffffffffff16631a654ace336040518263ffffffff1660e01b81526004016104379190611381565b602060405180830381865afa158015610454573d6000803e3d6000fd5b505050506040513d601f19601f8201168201806040525081019061047891906114b1565b8585858560405161048d9594939291906114de565b60405180910390a150505050565b606080600160009054906101000a900473ffffffffffffffffffffffffffffffffffffffff1673ffffffffffffffffffffffffffffffffffffffff16633acecb46846040518263ffffffff1660e01b81526004016104f99190611325565b600060405180830381865afa158015610516573d6000803e3d6000fd5b505050506040513d6000823e3d601f19601f8201168201806040525081019061053f9190611648565b91509150915091565b6000600160009054906101000a900473ffffffffffffffffffffffffffffffffffffffff1673ffffffffffffffffffffffffffffffffffffffff166387725aef600160009054906101000a900473ffffffffffffffffffffffffffffffffffffffff1673ffffffffffffffffffffffffffffffffffffffff16631a654ace336040518263ffffffff1660e01b81526004016105e39190611381565b602060405180830381865afa158015610600573d6000803e3d6000fd5b505050506040513d601f19601f8201168201806040525081019061062491906114b1565b6040518263ffffffff1660e01b81526004016106409190611325565b602060405180830381865afa15801561065d573d6000803e3d6000fd5b505050506040513d601f19601f8201168201806040525081019061068191906114b1565b9050600160009054906101000a900473ffffffffffffffffffffffffffffffffffffffff1673ffffffffffffffffffffffffffffffffffffffff16639a5edbfd336040518263ffffffff1660e01b81526004016106de9190611381565b600060405180830381600087803b1580156106f857600080fd5b505af115801561070c573d6000803e3d6000fd5b505050503373ffffffffffffffffffffffffffffffffffffffff166108fc829081150290604051600060405180830381858888f19350505050158015610756573d6000803e3d6000fd5b507f4b6d39f55e95a18496bd527873b6f5ef8bceb5be9f9519641eb2f25e954486e4816040516107869190611325565b60405180910390a150565b600160009054906101000a900473ffffffffffffffffffffffffffffffffffffffff1673ffffffffffffffffffffffffffffffffffffffff16634c2e06c685858585336040518663ffffffff1660e01b81526004016107f4959493929190611453565b600060405180830381600087803b15801561080e57600080fd5b505af1158015610822573d6000803e3d6000fd5b505050507f07c5f8cf064a43b8cce8d7bb4288e853b49de549b675b86f37348d094157e66f600160009054906101000a900473ffffffffffffffffffffffffffffffffffffffff1673ffffffffffffffffffffffffffffffffffffffff16631a654ace336040518263ffffffff1660e01b81526004016108a29190611381565b602060405180830381865afa1580156108bf573d6000803e3d6000fd5b505050506040513d601f19601f820116820180604052508101906108e391906114b1565b858585856040516108f89594939291906114de565b60405180910390a150505050565b600160009054906101000a900473ffffffffffffffffffffffffffffffffffffffff1673ffffffffffffffffffffffffffffffffffffffff1663f1c24e1f85858585336040518663ffffffff1660e01b8152600401610969959493929190611453565b600060405180830381600087803b15801561098357600080fd5b505af1158015610997573d6000803e3d6000fd5b505050507ff2e7515c78a069767c41648197e74447cb04dd2abfcbf968e827b8ee5777016d600160009054906101000a900473ffffffffffffffffffffffffffffffffffffffff1673ffffffffffffffffffffffffffffffffffffffff1663d0e4a725336040518263ffffffff1660e01b8152600401610a179190611381565b602060405180830381865afa158015610a34573d6000803e3d6000fd5b505050506040513d601f19601f82011682018060405250810190610a5891906114b1565b85858585604051610a6d9594939291906114de565b60405180910390a150505050565b3460036000828254610a8d91906116ef565b92505081905550565b600160009054906101000a900473ffffffffffffffffffffffffffffffffffffffff1673ffffffffffffffffffffffffffffffffffffffff1663187187c385858585336040518663ffffffff1660e01b8152600401610af9959493929190611453565b600060405180830381600087803b158015610b1357600080fd5b505af1158015610b27573d6000803e3d6000fd5b505050507f784cb669d68274c69d0f820ea866b39c149d8b4f408f44587600d0a7649332ff600160009054906101000a900473ffffffffffffffffffffffffffffffffffffffff1673ffffffffffffffffffffffffffffffffffffffff1663d0e4a725336040518263ffffffff1660e01b8152600401610ba79190611381565b602060405180830381865afa158015610bc4573d6000803e3d6000fd5b505050506040513d601f19601f82011682018060405250810190610be891906114b1565b85858585604051610bfd9594939291906114de565b60405180910390a150505050565b6000600160009054906101000a900473ffffffffffffffffffffffffffffffffffffffff1673ffffffffffffffffffffffffffffffffffffffff1663676ab2d46040518163ffffffff1660e01b8152600401602060405180830381865afa158015610c7a573d6000803e3d6000fd5b505050506040513d601f19601f82011682018060405250810190610c9e91906114b1565b905090565b60008054906101000a900473ffffffffffffffffffffffffffffffffffffffff1681565b6000600160009054906101000a900473ffffffffffffffffffffffffffffffffffffffff1673ffffffffffffffffffffffffffffffffffffffff16639d4911016040518163ffffffff1660e01b8152600401602060405180830381865afa158015610d36573d6000803e3d6000fd5b505050506040513d601f19601f82011682018060405250810190610d5a91906114b1565b905090565b806000806101000a81548173ffffffffffffffffffffffffffffffffffffffff021916908373ffffffffffffffffffffffffffffffffffffffff16021790555050565b6060600160009054906101000a900473ffffffffffffffffffffffffffffffffffffffff1673ffffffffffffffffffffffffffffffffffffffff1663cec68744836040518263ffffffff1660e01b8152600401610dff9190611325565b600060405180830381865afa158015610e1c573d6000803e3d6000fd5b505050506040513d6000823e3d601f19601f82011682018060405250810190610e459190611723565b9050919050565b600160009054906101000a900473ffffffffffffffffffffffffffffffffffffffff1673ffffffffffffffffffffffffffffffffffffffff1663b0862bd28234336040518463ffffffff1660e01b8152600401610eab9392919061176c565b600060405180830381600087803b158015610ec557600080fd5b505af1158015610ed9573d6000803e3d6000fd5b50505050600260009054906101000a900473ffffffffffffffffffffffffffffffffffffffff1673ffffffffffffffffffffffffffffffffffffffff166340c10f1933346040518363ffffffff1660e01b8152600401610f3a9291906117a3565b600060405180830381600087803b158015610f5457600080fd5b505af1158015610f68573d6000803e3d6000fd5b505050507fee7c385c661f49bd0305fb56ddacf350d503c0788ab7ea6315d719833a3f065a600160009054906101000a900473ffffffffffffffffffffffffffffffffffffffff1673ffffffffffffffffffffffffffffffffffffffff1663d0e4a725336040518263ffffffff1660e01b8152600401610fe89190611381565b602060405180830381865afa158015611005573d6000803e3d6000fd5b505050506040513d601f19601f8201168201806040525081019061102991906114b1565b823460405161103a939291906117cc565b60405180910390a150565b606080600160009054906101000a900473ffffffffffffffffffffffffffffffffffffffff1673ffffffffffffffffffffffffffffffffffffffff1663fabf5968846040518263ffffffff1660e01b81526004016110a39190611325565b600060405180830381865afa1580156110c0573d6000803e3d6000fd5b505050506040513d6000823e3d601f19601f820116820180604052508101906110e99190611648565b91509150915091565b6000604051905090565b600080fd5b600080fd5b600080fd5b600080fd5b600080fd5b60008083601f84011261112b5761112a611106565b5b8235905067ffffffffffffffff8111156111485761114761110b565b5b60208301915083600182028301111561116457611163611110565b5b9250929050565b60008060008060408587031215611185576111846110fc565b5b600085013567ffffffffffffffff8111156111a3576111a2611101565b5b6111af87828801611115565b9450945050602085013567ffffffffffffffff8111156111d2576111d1611101565b5b6111de87828801611115565b925092505092959194509250565b6000819050919050565b6111ff816111ec565b811461120a57600080fd5b50565b60008135905061121c816111f6565b92915050565b600060208284031215611238576112376110fc565b5b60006112468482850161120d565b91505092915050565b600081519050919050565b600082825260208201905092915050565b60005b8381101561128957808201518184015260208101905061126e565b60008484015250505050565b6000601f19601f8301169050919050565b60006112b18261124f565b6112bb818561125a565b93506112cb81856020860161126b565b6112d481611295565b840191505092915050565b600060408201905081810360008301526112f981856112a6565b9050818103602083015261130d81846112a6565b90509392505050565b61131f816111ec565b82525050565b600060208201905061133a6000830184611316565b92915050565b600073ffffffffffffffffffffffffffffffffffffffff82169050919050565b600061136b82611340565b9050919050565b61137b81611360565b82525050565b60006020820190506113966000830184611372565b92915050565b6113a581611360565b81146113b057600080fd5b50565b6000813590506113c28161139c565b92915050565b6000602082840312156113de576113dd6110fc565b5b60006113ec848285016113b3565b91505092915050565b6000602082019050818103600083015261140f81846112a6565b905092915050565b82818337600083830152505050565b6000611432838561125a565b935061143f838584611417565b61144883611295565b840190509392505050565b6000606082019050818103600083015261146e818789611426565b90508181036020830152611483818587611426565b90506114926040830184611372565b9695505050505050565b6000815190506114ab816111f6565b92915050565b6000602082840312156114c7576114c66110fc565b5b60006114d58482850161149c565b91505092915050565b60006060820190506114f36000830188611316565b8181036020830152611506818688611426565b9050818103604083015261151b818486611426565b90509695505050505050565b600080fd5b7f4e487b7100000000000000000000000000000000000000000000000000000000600052604160045260246000fd5b61156482611295565b810181811067ffffffffffffffff821117156115835761158261152c565b5b80604052505050565b60006115966110f2565b90506115a2828261155b565b919050565b600067ffffffffffffffff8211156115c2576115c161152c565b5b6115cb82611295565b9050602081019050919050565b60006115eb6115e6846115a7565b61158c565b90508281526020810184848401111561160757611606611527565b5b61161284828561126b565b509392505050565b600082601f83011261162f5761162e611106565b5b815161163f8482602086016115d8565b91505092915050565b6000806040838503121561165f5761165e6110fc565b5b600083015167ffffffffffffffff81111561167d5761167c611101565b5b6116898582860161161a565b925050602083015167ffffffffffffffff8111156116aa576116a9611101565b5b6116b68582860161161a565b9150509250929050565b7f4e487b7100000000000000000000000000000000000000000000000000000000600052601160045260246000fd5b60006116fa826111ec565b9150611705836111ec565b925082820190508082111561171d5761171c6116c0565b5b92915050565b600060208284031215611739576117386110fc565b5b600082015167ffffffffffffffff81111561175757611756611101565b5b6117638482850161161a565b91505092915050565b60006060820190506117816000830186611316565b61178e6020830185611316565b61179b6040830184611372565b949350505050565b60006040820190506117b86000830185611372565b6117c56020830184611316565b9392505050565b60006060820190506117e16000830186611316565b6117ee6020830185611316565b6117fb6040830184611316565b94935050505056fea264697066735822122071494d61728ca5d0520ec5db4d653cae708dc8e218b3678f9e579de9ad9c618164736f6c63430008120033",
  "linkReferences": {},
  "deployedLinkReferences": {}
}