{
  "_format": "hh-sol-artifact-1",
  "contractName": "Peace",
  "sourceName": "contracts/Peace.sol",
  "abi": [
    {
      "inputs": [
        {
          "internalType": "address",
          "name": "storageAddress",
          "type": "address"
        },
        {
          "internalType": "address",
          "name": "tokenAddress",
          "type": "address"
        }
      ],
      "stateMutability": "payable",
      "type": "constructor"
    },
    {
      "anonymous": false,
      "inputs": [
        {
          "indexed": false,
          "internalType": "uint256",
          "name": "supporterId",
          "type": "uint256"
        },
        {
          "indexed": false,
          "internalType": "uint256",
          "name": "projectId",
          "type": "uint256"
        },
        {
          "indexed": false,
          "internalType": "uint256",
          "name": "amount",
          "type": "uint256"
        }
      ],
      "name": "onDonate",
      "type": "event"
    },
    {
      "anonymous": false,
      "inputs": [
        {
          "indexed": false,
          "internalType": "uint256",
          "name": "id",
          "type": "uint256"
        },
        {
          "indexed": false,
          "internalType": "string",
          "name": "name",
          "type": "string"
        },
        {
          "indexed": false,
          "internalType": "string",
          "name": "desc",
          "type": "string"
        }
      ],
      "name": "onFixProjectInfo",
      "type": "event"
    },
    {
      "anonymous": false,
      "inputs": [
        {
          "indexed": false,
          "internalType": "uint256",
          "name": "id",
          "type": "uint256"
        },
        {
          "indexed": false,
          "internalType": "string",
          "name": "name",
          "type": "string"
        },
        {
          "indexed": false,
          "internalType": "string",
          "name": "intro",
          "type": "string"
        }
      ],
      "name": "onFixSupporterInfo",
      "type": "event"
    },
    {
      "anonymous": false,
      "inputs": [
        {
          "indexed": false,
          "internalType": "uint256",
          "name": "id",
          "type": "uint256"
        },
        {
          "indexed": false,
          "internalType": "string",
          "name": "name",
          "type": "string"
        },
        {
          "indexed": false,
          "internalType": "string",
          "name": "desc",
          "type": "string"
        }
      ],
      "name": "onRegisterAsProject",
      "type": "event"
    },
    {
      "anonymous": false,
      "inputs": [
        {
          "indexed": false,
          "internalType": "uint256",
          "name": "id",
          "type": "uint256"
        },
        {
          "indexed": false,
          "internalType": "string",
          "name": "name",
          "type": "string"
        },
        {
          "indexed": false,
          "internalType": "string",
          "name": "intro",
          "type": "string"
        }
      ],
      "name": "onRegisterAsSupporter",
      "type": "event"
    },
    {
      "anonymous": false,
      "inputs": [
        {
          "indexed": false,
          "internalType": "uint256",
          "name": "amount",
          "type": "uint256"
        }
      ],
      "name": "onWithdraw",
      "type": "event"
    },
    {
      "inputs": [],
      "name": "addGusFee",
      "outputs": [],
      "stateMutability": "payable",
      "type": "function"
    },
    {
      "inputs": [
        {
          "internalType": "uint256",
          "name": "id",
          "type": "uint256"
        }
      ],
      "name": "donate",
      "outputs": [],
      "stateMutability": "payable",
      "type": "function"
    },
    {
      "inputs": [
        {
          "internalType": "string",
          "name": "name",
          "type": "string"
        },
        {
          "internalType": "string",
          "name": "desc",
          "type": "string"
        }
      ],
      "name": "fixProjectInfo",
      "outputs": [],
      "stateMutability": "nonpayable",
      "type": "function"
    },
    {
      "inputs": [
        {
          "internalType": "string",
          "name": "name",
          "type": "string"
        },
        {
          "internalType": "string",
          "name": "intro",
          "type": "string"
        }
      ],
      "name": "fixSupporterInfo",
      "outputs": [],
      "stateMutability": "nonpayable",
      "type": "function"
    },
    {
      "inputs": [],
      "name": "getNumOfProjects",
      "outputs": [
        {
          "internalType": "uint256",
          "name": "",
          "type": "uint256"
        }
      ],
      "stateMutability": "view",
      "type": "function"
    },
    {
      "inputs": [],
      "name": "getNumOfSupporters",
      "outputs": [
        {
          "internalType": "uint256",
          "name": "",
          "type": "uint256"
        }
      ],
      "stateMutability": "view",
      "type": "function"
    },
    {
      "inputs": [
        {
          "internalType": "uint256",
          "name": "id",
          "type": "uint256"
        }
      ],
      "name": "getProjectInfo",
      "outputs": [
        {
          "internalType": "string",
          "name": "",
          "type": "string"
        },
        {
          "internalType": "string",
          "name": "",
          "type": "string"
        }
      ],
      "stateMutability": "view",
      "type": "function"
    },
    {
      "inputs": [
        {
          "internalType": "uint256",
          "name": "id",
          "type": "uint256"
        }
      ],
      "name": "getSupporterInfo",
      "outputs": [
        {
          "internalType": "string",
          "name": "",
          "type": "string"
        },
        {
          "internalType": "string",
          "name": "",
          "type": "string"
        }
      ],
      "stateMutability": "view",
      "type": "function"
    },
    {
      "inputs": [
        {
          "internalType": "uint256",
          "name": "id",
          "type": "uint256"
        }
      ],
      "name": "getSupporterName",
      "outputs": [
        {
          "internalType": "string",
          "name": "",
          "type": "string"
        }
      ],
      "stateMutability": "view",
      "type": "function"
    },
    {
      "inputs": [],
      "name": "owner",
      "outputs": [
        {
          "internalType": "address",
          "name": "",
          "type": "address"
        }
      ],
      "stateMutability": "view",
      "type": "function"
    },
    {
      "inputs": [
        {
          "internalType": "string",
          "name": "name",
          "type": "string"
        },
        {
          "internalType": "string",
          "name": "desc",
          "type": "string"
        }
      ],
      "name": "registerAsProject",
      "outputs": [],
      "stateMutability": "nonpayable",
      "type": "function"
    },
    {
      "inputs": [
        {
          "internalType": "string",
          "name": "name",
          "type": "string"
        },
        {
          "internalType": "string",
          "name": "intro",
          "type": "string"
        }
      ],
      "name": "registerAsSupporter",
      "outputs": [],
      "stateMutability": "nonpayable",
      "type": "function"
    },
    {
      "inputs": [],
      "name": "withdraw",
      "outputs": [],
      "stateMutability": "nonpayable",
      "type": "function"
    }
  ],
  "bytecode": "0x6080604052604051620018b7380380620018b783398181016040528101906200002991906200015d565b336000806101000a81548173ffffffffffffffffffffffffffffffffffffffff021916908373ffffffffffffffffffffffffffffffffffffffff16021790555081600160006101000a81548173ffffffffffffffffffffffffffffffffffffffff021916908373ffffffffffffffffffffffffffffffffffffffff16021790555080600260006101000a81548173ffffffffffffffffffffffffffffffffffffffff021916908373ffffffffffffffffffffffffffffffffffffffff1602179055505050620001a4565b600080fd5b600073ffffffffffffffffffffffffffffffffffffffff82169050919050565b60006200012582620000f8565b9050919050565b620001378162000118565b81146200014357600080fd5b50565b60008151905062000157816200012c565b92915050565b60008060408385031215620001775762000176620000f3565b5b6000620001878582860162000146565b92505060206200019a8582860162000146565b9150509250929050565b61170380620001b46000396000f3fe6080604052600436106100c25760003560e01c80635af559901161007f5780639d491101116100595780639d49110114610220578063cec687441461024b578063f14faf6f14610288578063fabf5968146102a4576100c2565b80635af55990146101a1578063676ab2d4146101ca5780638da5cb5b146101f5576100c2565b8063069d1144146100c75780633acecb46146100f05780633ccfd60b1461012e578063548891731461014557806355dc611c1461016e578063567eccce14610197575b600080fd5b3480156100d357600080fd5b506100ee60048036038101906100e9919061119d565b6102e2565b005b3480156100fc57600080fd5b506101176004803603810190610112919061124b565b61044d565b6040516101259291906112f7565b60405180910390f35b34801561013a57600080fd5b506101436104fa565b005b34801561015157600080fd5b5061016c6004803603810190610167919061119d565b610743565b005b34801561017a57600080fd5b506101956004803603810190610190919061119d565b6108ae565b005b61019f610a19565b005b3480156101ad57600080fd5b506101c860048036038101906101c3919061119d565b610a34565b005b3480156101d657600080fd5b506101df610b9f565b6040516101ec919061133d565b60405180910390f35b34801561020157600080fd5b5061020a610c37565b6040516102179190611399565b60405180910390f35b34801561022c57600080fd5b50610235610c5b565b604051610242919061133d565b60405180910390f35b34801561025757600080fd5b50610272600480360381019061026d919061124b565b610cf3565b60405161027f91906113b4565b60405180910390f35b6102a2600480360381019061029d919061124b565b610d9d565b005b3480156102b057600080fd5b506102cb60048036038101906102c6919061124b565b610f96565b6040516102d99291906112f7565b60405180910390f35b600160009054906101000a900473ffffffffffffffffffffffffffffffffffffffff1673ffffffffffffffffffffffffffffffffffffffff166399c0aa438383336040518463ffffffff1660e01b8152600401610341939291906113d6565b600060405180830381600087803b15801561035b57600080fd5b505af115801561036f573d6000803e3d6000fd5b505050507f73c63a2d104ed71886d80a6d53d106a8b6dbdd9d7be9636d258f7b4144a0f055600160009054906101000a900473ffffffffffffffffffffffffffffffffffffffff1673ffffffffffffffffffffffffffffffffffffffff16631a654ace336040518263ffffffff1660e01b81526004016103ef9190611399565b602060405180830381865afa15801561040c573d6000803e3d6000fd5b505050506040513d601f19601f820116820180604052508101906104309190611430565b83836040516104419392919061145d565b60405180910390a15050565b606080600160009054906101000a900473ffffffffffffffffffffffffffffffffffffffff1673ffffffffffffffffffffffffffffffffffffffff16633acecb46846040518263ffffffff1660e01b81526004016104ab919061133d565b600060405180830381865afa1580156104c8573d6000803e3d6000fd5b505050506040513d6000823e3d601f19601f820116820180604052508101906104f19190611512565b91509150915091565b6000600160009054906101000a900473ffffffffffffffffffffffffffffffffffffffff1673ffffffffffffffffffffffffffffffffffffffff166387725aef600160009054906101000a900473ffffffffffffffffffffffffffffffffffffffff1673ffffffffffffffffffffffffffffffffffffffff16631a654ace336040518263ffffffff1660e01b81526004016105959190611399565b602060405180830381865afa1580156105b2573d6000803e3d6000fd5b505050506040513d601f19601f820116820180604052508101906105d69190611430565b6040518263ffffffff1660e01b81526004016105f2919061133d565b602060405180830381865afa15801561060f573d6000803e3d6000fd5b505050506040513d601f19601f820116820180604052508101906106339190611430565b9050600160009054906101000a900473ffffffffffffffffffffffffffffffffffffffff1673ffffffffffffffffffffffffffffffffffffffff16639a5edbfd336040518263ffffffff1660e01b81526004016106909190611399565b600060405180830381600087803b1580156106aa57600080fd5b505af11580156106be573d6000803e3d6000fd5b505050503373ffffffffffffffffffffffffffffffffffffffff166108fc829081150290604051600060405180830381858888f19350505050158015610708573d6000803e3d6000fd5b507f4b6d39f55e95a18496bd527873b6f5ef8bceb5be9f9519641eb2f25e954486e481604051610738919061133d565b60405180910390a150565b600160009054906101000a900473ffffffffffffffffffffffffffffffffffffffff1673ffffffffffffffffffffffffffffffffffffffff16634c2e06c68383336040518463ffffffff1660e01b81526004016107a2939291906113d6565b600060405180830381600087803b1580156107bc57600080fd5b505af11580156107d0573d6000803e3d6000fd5b505050507f07c5f8cf064a43b8cce8d7bb4288e853b49de549b675b86f37348d094157e66f600160009054906101000a900473ffffffffffffffffffffffffffffffffffffffff1673ffffffffffffffffffffffffffffffffffffffff16631a654ace336040518263ffffffff1660e01b81526004016108509190611399565b602060405180830381865afa15801561086d573d6000803e3d6000fd5b505050506040513d601f19601f820116820180604052508101906108919190611430565b83836040516108a29392919061145d565b60405180910390a15050565b600160009054906101000a900473ffffffffffffffffffffffffffffffffffffffff1673ffffffffffffffffffffffffffffffffffffffff1663f1c24e1f8383336040518463ffffffff1660e01b815260040161090d939291906113d6565b600060405180830381600087803b15801561092757600080fd5b505af115801561093b573d6000803e3d6000fd5b505050507ff2e7515c78a069767c41648197e74447cb04dd2abfcbf968e827b8ee5777016d600160009054906101000a900473ffffffffffffffffffffffffffffffffffffffff1673ffffffffffffffffffffffffffffffffffffffff1663d0e4a725336040518263ffffffff1660e01b81526004016109bb9190611399565b602060405180830381865afa1580156109d8573d6000803e3d6000fd5b505050506040513d601f19601f820116820180604052508101906109fc9190611430565b8383604051610a0d9392919061145d565b60405180910390a15050565b3460036000828254610a2b91906115b9565b92505081905550565b600160009054906101000a900473ffffffffffffffffffffffffffffffffffffffff1673ffffffffffffffffffffffffffffffffffffffff1663187187c38383336040518463ffffffff1660e01b8152600401610a93939291906113d6565b600060405180830381600087803b158015610aad57600080fd5b505af1158015610ac1573d6000803e3d6000fd5b505050507f784cb669d68274c69d0f820ea866b39c149d8b4f408f44587600d0a7649332ff600160009054906101000a900473ffffffffffffffffffffffffffffffffffffffff1673ffffffffffffffffffffffffffffffffffffffff1663d0e4a725336040518263ffffffff1660e01b8152600401610b419190611399565b602060405180830381865afa158015610b5e573d6000803e3d6000fd5b505050506040513d601f19601f82011682018060405250810190610b829190611430565b8383604051610b939392919061145d565b60405180910390a15050565b6000600160009054906101000a900473ffffffffffffffffffffffffffffffffffffffff1673ffffffffffffffffffffffffffffffffffffffff1663676ab2d46040518163ffffffff1660e01b8152600401602060405180830381865afa158015610c0e573d6000803e3d6000fd5b505050506040513d601f19601f82011682018060405250810190610c329190611430565b905090565b60008054906101000a900473ffffffffffffffffffffffffffffffffffffffff1681565b6000600160009054906101000a900473ffffffffffffffffffffffffffffffffffffffff1673ffffffffffffffffffffffffffffffffffffffff16639d4911016040518163ffffffff1660e01b8152600401602060405180830381865afa158015610cca573d6000803e3d6000fd5b505050506040513d601f19601f82011682018060405250810190610cee9190611430565b905090565b6060600160009054906101000a900473ffffffffffffffffffffffffffffffffffffffff1673ffffffffffffffffffffffffffffffffffffffff1663cec68744836040518263ffffffff1660e01b8152600401610d50919061133d565b600060405180830381865afa158015610d6d573d6000803e3d6000fd5b505050506040513d6000823e3d601f19601f82011682018060405250810190610d9691906115ed565b9050919050565b600160009054906101000a900473ffffffffffffffffffffffffffffffffffffffff1673ffffffffffffffffffffffffffffffffffffffff1663b0862bd28234336040518463ffffffff1660e01b8152600401610dfc93929190611636565b600060405180830381600087803b158015610e1657600080fd5b505af1158015610e2a573d6000803e3d6000fd5b50505050600260009054906101000a900473ffffffffffffffffffffffffffffffffffffffff1673ffffffffffffffffffffffffffffffffffffffff166340c10f1933346040518363ffffffff1660e01b8152600401610e8b92919061166d565b600060405180830381600087803b158015610ea557600080fd5b505af1158015610eb9573d6000803e3d6000fd5b505050507fee7c385c661f49bd0305fb56ddacf350d503c0788ab7ea6315d719833a3f065a600160009054906101000a900473ffffffffffffffffffffffffffffffffffffffff1673ffffffffffffffffffffffffffffffffffffffff1663d0e4a725336040518263ffffffff1660e01b8152600401610f399190611399565b602060405180830381865afa158015610f56573d6000803e3d6000fd5b505050506040513d601f19601f82011682018060405250810190610f7a9190611430565b8234604051610f8b93929190611696565b60405180910390a150565b606080600160009054906101000a900473ffffffffffffffffffffffffffffffffffffffff1673ffffffffffffffffffffffffffffffffffffffff1663fabf5968846040518263ffffffff1660e01b8152600401610ff4919061133d565b600060405180830381865afa158015611011573d6000803e3d6000fd5b505050506040513d6000823e3d601f19601f8201168201806040525081019061103a9190611512565b91509150915091565b6000604051905090565b600080fd5b600080fd5b600080fd5b600080fd5b6000601f19601f8301169050919050565b7f4e487b7100000000000000000000000000000000000000000000000000000000600052604160045260246000fd5b6110aa82611061565b810181811067ffffffffffffffff821117156110c9576110c8611072565b5b80604052505050565b60006110dc611043565b90506110e882826110a1565b919050565b600067ffffffffffffffff82111561110857611107611072565b5b61111182611061565b9050602081019050919050565b82818337600083830152505050565b600061114061113b846110ed565b6110d2565b90508281526020810184848401111561115c5761115b61105c565b5b61116784828561111e565b509392505050565b600082601f83011261118457611183611057565b5b813561119484826020860161112d565b91505092915050565b600080604083850312156111b4576111b361104d565b5b600083013567ffffffffffffffff8111156111d2576111d1611052565b5b6111de8582860161116f565b925050602083013567ffffffffffffffff8111156111ff576111fe611052565b5b61120b8582860161116f565b9150509250929050565b6000819050919050565b61122881611215565b811461123357600080fd5b50565b6000813590506112458161121f565b92915050565b6000602082840312156112615761126061104d565b5b600061126f84828501611236565b91505092915050565b600081519050919050565b600082825260208201905092915050565b60005b838110156112b2578082015181840152602081019050611297565b60008484015250505050565b60006112c982611278565b6112d38185611283565b93506112e3818560208601611294565b6112ec81611061565b840191505092915050565b6000604082019050818103600083015261131181856112be565b9050818103602083015261132581846112be565b90509392505050565b61133781611215565b82525050565b6000602082019050611352600083018461132e565b92915050565b600073ffffffffffffffffffffffffffffffffffffffff82169050919050565b600061138382611358565b9050919050565b61139381611378565b82525050565b60006020820190506113ae600083018461138a565b92915050565b600060208201905081810360008301526113ce81846112be565b905092915050565b600060608201905081810360008301526113f081866112be565b9050818103602083015261140481856112be565b9050611413604083018461138a565b949350505050565b60008151905061142a8161121f565b92915050565b6000602082840312156114465761144561104d565b5b60006114548482850161141b565b91505092915050565b6000606082019050611472600083018661132e565b818103602083015261148481856112be565b9050818103604083015261149881846112be565b9050949350505050565b60006114b56114b0846110ed565b6110d2565b9050828152602081018484840111156114d1576114d061105c565b5b6114dc848285611294565b509392505050565b600082601f8301126114f9576114f8611057565b5b81516115098482602086016114a2565b91505092915050565b600080604083850312156115295761152861104d565b5b600083015167ffffffffffffffff81111561154757611546611052565b5b611553858286016114e4565b925050602083015167ffffffffffffffff81111561157457611573611052565b5b611580858286016114e4565b9150509250929050565b7f4e487b7100000000000000000000000000000000000000000000000000000000600052601160045260246000fd5b60006115c482611215565b91506115cf83611215565b92508282019050808211156115e7576115e661158a565b5b92915050565b6000602082840312156116035761160261104d565b5b600082015167ffffffffffffffff81111561162157611620611052565b5b61162d848285016114e4565b91505092915050565b600060608201905061164b600083018661132e565b611658602083018561132e565b611665604083018461138a565b949350505050565b6000604082019050611682600083018561138a565b61168f602083018461132e565b9392505050565b60006060820190506116ab600083018661132e565b6116b8602083018561132e565b6116c5604083018461132e565b94935050505056fea2646970667358221220aacb66d9283166eac9ce78239f5974cfba5d722f255c7ccb9f3ac5aae2616d9264736f6c63430008120033",
  "linkReferences": {},
  "deployedLinkReferences": {}
}